{
  "_format": "hh-sol-artifact-1",
  "contractName": "DonationPlatformContract",
  "sourceName": "contracts/DonationPlatform.sol",
  "abi": [
    {
      "inputs": [],
      "stateMutability": "payable",
      "type": "constructor"
    },
    {
      "anonymous": false,
      "inputs": [
        {
          "indexed": true,
          "internalType": "address",
          "name": "sender",
          "type": "address"
        },
        {
          "indexed": false,
          "internalType": "uint256",
          "name": "amount",
          "type": "uint256"
        }
      ],
      "name": "ReceivedETH",
      "type": "event"
    },
    {
      "anonymous": false,
      "inputs": [
        {
          "indexed": true,
          "internalType": "address",
          "name": "rreceiver",
          "type": "address"
        },
        {
          "indexed": false,
          "internalType": "uint256",
          "name": "amount",
          "type": "uint256"
        }
      ],
      "name": "WithdrawnETH",
      "type": "event"
    },
    {
      "inputs": [],
      "name": "getContractBalance",
      "outputs": [
        {
          "internalType": "uint256",
          "name": "",
          "type": "uint256"
        }
      ],
      "stateMutability": "view",
      "type": "function"
    },
    {
      "inputs": [],
      "name": "owner",
      "outputs": [
        {
          "internalType": "address",
          "name": "",
          "type": "address"
        }
      ],
      "stateMutability": "view",
      "type": "function"
    },
    {
      "inputs": [
        {
          "internalType": "uint256",
          "name": "amount",
          "type": "uint256"
        }
      ],
      "name": "withdraw",
      "outputs": [],
      "stateMutability": "payable",
      "type": "function"
    },
    {
      "stateMutability": "payable",
      "type": "receive"
    }
  ],
  "bytecode": "0x608060405261004c6040518060400160405280601d81526020017f436f6e7374727563746f7220686173206265656e20657865637574656400000081525061005160201b6102111760201c565b6101cb565b6100ed8160405160240161006591906101a9565b6040516020818303038152906040527f41304fac000000000000000000000000000000000000000000000000000000007bffffffffffffffffffffffffffffffffffffffffffffffffffffffff19166020820180517bffffffffffffffffffffffffffffffffffffffffffffffffffffffff83818316178352505050506100f060201b60201c565b50565b60008151905060006a636f6e736f6c652e6c6f679050602083016000808483855afa5050505050565b600081519050919050565b600082825260208201905092915050565b60005b83811015610153578082015181840152602081019050610138565b60008484015250505050565b6000601f19601f8301169050919050565b600061017b82610119565b6101858185610124565b9350610195818560208601610135565b61019e8161015f565b840191505092915050565b600060208201905081810360008301526101c38184610170565b905092915050565b610515806101da6000396000f3fe6080604052600436106100385760003560e01c80632e1a7d4d146100925780636f9fb98a146100ae5780638da5cb5b146100d95761008d565b3661008d573373ffffffffffffffffffffffffffffffffffffffff167f4103257eaac983ca79a70d28f90dfc4fa16b619bb0c17ee7cab0d4034c2796243460405161008391906102ec565b60405180910390a2005b600080fd5b6100ac60048036038101906100a79190610338565b610104565b005b3480156100ba57600080fd5b506100c36101e5565b6040516100d091906102ec565b60405180910390f35b3480156100e557600080fd5b506100ee6101ed565b6040516100fb91906103a6565b60405180910390f35b47811115610147576040517f08c379a000000000000000000000000000000000000000000000000000000000815260040161013e9061041e565b60405180910390fd5b60003390508073ffffffffffffffffffffffffffffffffffffffff166108fc839081150290604051600060405180830381858888f19350505050158015610192573d6000803e3d6000fd5b503373ffffffffffffffffffffffffffffffffffffffff167f5817fe91d2748c33f168d8a78037fc073adaf6ec8e3613a758d44a2cfae4563d836040516101d991906102ec565b60405180910390a25050565b600047905090565b60008054906101000a900473ffffffffffffffffffffffffffffffffffffffff1681565b6102a78160405160240161022591906104bd565b6040516020818303038152906040527f41304fac000000000000000000000000000000000000000000000000000000007bffffffffffffffffffffffffffffffffffffffffffffffffffffffff19166020820180517bffffffffffffffffffffffffffffffffffffffffffffffffffffffff83818316178352505050506102aa565b50565b60008151905060006a636f6e736f6c652e6c6f679050602083016000808483855afa5050505050565b6000819050919050565b6102e6816102d3565b82525050565b600060208201905061030160008301846102dd565b92915050565b600080fd5b610315816102d3565b811461032057600080fd5b50565b6000813590506103328161030c565b92915050565b60006020828403121561034e5761034d610307565b5b600061035c84828501610323565b91505092915050565b600073ffffffffffffffffffffffffffffffffffffffff82169050919050565b600061039082610365565b9050919050565b6103a081610385565b82525050565b60006020820190506103bb6000830184610397565b92915050565b600082825260208201905092915050565b7f496e73756666696369656e7420636f6e74726163742062616c616e6365000000600082015250565b6000610408601d836103c1565b9150610413826103d2565b602082019050919050565b60006020820190508181036000830152610437816103fb565b9050919050565b600081519050919050565b60005b8381101561046757808201518184015260208101905061044c565b60008484015250505050565b6000601f19601f8301169050919050565b600061048f8261043e565b61049981856103c1565b93506104a9818560208601610449565b6104b281610473565b840191505092915050565b600060208201905081810360008301526104d78184610484565b90509291505056fea264697066735822122039094a88e2e99afd1c0d648b96112d3318ed222b4194bd26f4a309e5acd9f44f64736f6c63430008120033",
  "linkReferences": {},
  "deployedLinkReferences": {}
}